:020000040000FA
:101800004D5300005032000030320000302D0000F7
:1018100050520000492D00004150000050000000CF
:10182000876C0000FFFF00000E2C0000FFFF00008F
:10183000323000002E300000312E00003131000027
:10184000822237002F233700B82237004F2337007A
:101850001C123700490D3700FFFFFF00FFFFFF009C
:10186000FFFFFF00FFFFFF00FFFFFF00FFFFFF0084
:10187000FFFFFF00FFFFFF00FFFFFF00FFFFFF0074
:101880000FBD21004EFE22000E0188000000000066
:10189000000020000000E0000200320000012000F3
:1018A000200288000C000700A0AE250001002000E7
:1018B0000F000700000020000000E00002003200DE
:1018C0000000020000000000C46B020000000000E5
:1018D0000040DA000000FE00003021000000E000BF
:1018E0000200320000202000900188000000060065
:1018F000A1028800800078000000EB001A00370089
:10190000E280400054A0B4009101BA00E28040009F
:1019100054A0B4009102BA00E280400054A0B40088
:101920000002EB00472BDE00F507B200A60188009D
:10193000602CE10008003A000049EB000201E800D9
:10194000020039003420EC0002F0A0008301E9001D
:10195000F9FF3E00040037006128E1000100320079
:101960000082EB000B00070011C3BA001101BA009E
:101970000604E00003003A000200E000E0FF3A0045
:1019800000000600F607B200A60288008200780078
:10199000F5FF370004D0A300E20F49001C00390016
:1019A000810278003549BA000201E80002003900DE
:1019B0003420EC0002F0A0008301E9000F003200A7
:1019C0002549BA000201E800020039003420EC0089
:1019D00002F0A0008301E900080032000400E000EA
:1019E0000600320015C9BA000201E8000200390001
:1019F0003420EC0002F0A0008301E9008180E800BF
:101A000054A0B4000300E000E2FF3A00000006002A
:101A10009102BA00055978008301E900F7FF32000E
:101A2000C82ADE00055978008301E900F3FF32007F
:101A30000400E000F1FF320011D9BA00EEFF3700D8
:101A40000000000000000000000000000000000096
:101A50000040DA000000FE000001BE001B0007008D
:101A60000470A70003F0A10003F8A30013003A00DC
:101A70006509B10010003200090035006928E10055
:101A800002003500010028000000050000004000B1
:101A9000818048008502E900FCFF3A000000060052
:101AA000F88F4200050035008100D1000080D3008E
:101AB0008502E800FCFF3A00000006008000EB0011
:101AC000000005006011B80059003700C70ADE00A9
:101AD000F107B200F50FB20008003200E1CF42007A
:101AE000020032000170A00024000500810F700088
:101AF000010032000408050044000500810F700059
:101B000002003A00140005008502E90000004000D0
:101B100081C04800FCFF3B000170A00024000500CC
:101B2000889FBE008A9FBE008C1F7800950007002A
:101B30009C00330003866C006450E10024003200F6
:101B40006420E100270032006150E10022003200F1
:101B50006120E100210032008B854200EB07B100DB
:101B60000134B800003AB8000804420089844A00F1
:101B7000013AB8000030B8008880400009014A00EE
:101B80000400330000004000818048000201490049
:101B90008B05E900C909DD008301700001003200F6
:101BA00013002000C814DE004814DD004709DE00E1
:101BB0001200B200C808DE00088470004B00070065
:101BC00001F0A1000CF0A70001F0A0007E0037009A
:101BD0006120E100800032000801BE000200BE006A
:101BE000F7FF37006150E100FCFF3A007A00370050
:101BF0006022B800060220000000D0008180D200E0
:101C00000482D2008582D2000000A00002025200AD
:101C100083825A00030031000202420083824A009C
:101C20000000A1000603E900F3FF3A0000000600EF
:101C3000889FBE008A9FBE0000827000040271006F
:101C400004827100260032000004BE000200BE00C3
:101C50006011B8006B092000950220000182CF00BE
:101C60000A0039000541B1000082CF0007003900A9
:101C70000541B1000982CF00040039000541B100DF
:101C80000882CF00010039000541B1000542520031
:101C9000120032000A003B00828171006101640081
:101CA0008100D1000080D3008984D3000884D30050
:101CB0008B05E8000442E800F7FF3A000700370010
:101CC0000804440089844C000000480081804800DA
:101CD0008B05E9000442E900F9FF3A000300070020
:101CE0004F05BE004F04BE0000000600810020002A
:101CF000618055000B003D000B00200061FE2F00AD
:101D00000100E1001D003400828171006101640066
:101D10008904D1000884D3000000E800FAFF3A00EB
:101D20007100200061006400030070000200600088
:101D30000900320061044400E0844C000988A500D9
:101D4000050032008B05E8006808E10002003A0057
:101D50008904D1000884D300F20F20000258E1006A
:101D600005003D00C75DDD00F907B2008980750000
:101D700008007800000006000BF827008B007800B0
:101D8000000005000004BE0050FF07000003BE0075
:101D90000405BE000200BE004CFF0700844F750022
:101DA000000006000200BE006450E100050036009D
:101DB0006420E100020036000968A30001003A0037
:101DC0000800BE000160A0004F0678004F05BE006D
:101DD0004F04BE0000000600F0FF2F00F1FF2700B7
:101DE000F9FF370096000000960000009600000002
:101DF000960000009600000096000000960000008B
:101E0000960000009600000096000000960000007A
:101E1000960000009600000096000000960000006A
:101E2000960000009600000096000000960000005A
:101E3000960000009600000096000000960000004A
:101E4000960000009600000096000000960000003A
:101E5000960000009600000096000000960000002A
:101E6000960000009600000096000000960000001A
:101E7000960000009600000096000000960000000A
:101E800096000000960000009600000096000000FA
:101E900096000000960000009600000096000000EA
:101EA00096000000960000009600000096000000DA
:101EB00096000000960000009600000096000000CA
:101EC00096000000960000009600000096000000BA
:101ED00096000000960000009600000096000000AA
:101EE000960000009600000095000000940000009D
:101EF0009300000093000000920000009100000099
:101F000090000000900000008F0000008E00000094
:101F10008E0000008D0000008C0000008C0000008E
:101F20008B0000008A0000008A0000008900000089
:101F30008800000088000000870000008700000083
:101F4000860000008600000085000000840000007C
:101F50008400000083000000830000008200000075
:101F6000820000008100000081000000800000006D
:101F7000800000007F0000007F0000007E00000065
:101F80007E0000007D0000007D0000007C0000005D
:101F90007C0000007B0000007B0000007A00000055
:101FA0007A0000007A00000079000000790000004B
:101FB0007800000078000000770000007700000043
:101FC0007700000076000000760000007500000039
:101FD000750000007500000074000000740000002F
:101FE0007300000073000000730000007200000026
:101FF000720000007200000071000000710000001B
:102000007000000070000000700000006F00000011
:102010006F0000006F0000006E0000006E00000006
:102020006E0000006D0000006D0000006D000000FB
:102030006C0000006C0000006C0000006B000000F1
:102040006B0000006B0000006B0000006A000000E5
:102050006A0000006A0000006900000069000000DA
:1020600069000000680000006800000068000000CF
:1020700068000000670000006700000067000000C3
:1020800066000000660000006600000066000000B8
:1020900065000000650000006500000064000000AD
:1020A00064000000640000006400000063000000A1
:1020B0006300000063000000630000006200000095
:1020C0006200000062000000620000006100000089
:1020D000610000006100000061000000600000007D
:1020E0006000000060000000600000005F00000071
:1020F0005F0000005F0000005F0000005E00000065
:102100005E0000005E0000005E0000005D00000058
:102110005D0000005D0000005D0000005D0000004B
:102120005C0000005C0000005C0000005C0000003F
:102130005B0000005B0000005B0000005B00000033
:102140005B0000005A0000005A0000005A00000026
:102150005A0000005900000059000000590000001A
:10216000590000005900000058000000580000000D
:102170005800000058000000580000005700000000
:1021800057000000570000005700000057000000F3
:1021900056000000560000005600000056000000E7
:1021A00056000000550000005500000055000000DA
:1021B00055000000550000005400000054000000CD
:1021C00054000000540000005400000053000000C0
:1021D00053000000530000005300000053000000B3
:1021E00052000000520000005200000052000000A7
:1021F0005200000052000000510000005100000099
:10220000510000005100000051000000500000008B
:10221000500000005000000050000000500000007E
:10222000500000004F0000004F0000004F00000071
:102230004F0000004F0000004E0000004E00000064
:102240004E0000004E0000004E0000004E00000056
:102250004D0000004D0000004D0000004D0000004A
:102260004D0000004D0000004C0000004C0000003C
:102270004C0000004C0000004C0000004C0000002E
:102280004B0000004B0000004B0000004B00000022
:102290004B0000004B0000004A0000004A00000014
:1022A0004A0000004A0000004A0000004A00000006
:1022B00049000000490000004900000049000000FA
:1022C00049000000490000004900000048000000EB
:1022D00048000000480000004800000048000000DE
:1022E00048000000470000004700000047000000D1
:1022F00047000000470000004700000047000000C2
:1023000046000000460000004600000046000000B5
:1023100046000000460000004500000045000000A7
:102320004500000045000000450000004500000099
:10233000450000004400000044000000440000008C
:10234000440000004400000044000000440000007D
:102350004300000043000000430000004300000071
:102360004300000043000000430000004200000062
:102370004200000042000000420000004200000055
:102380004200000042000000410000004100000047
:102390004100000041000000410000004100000039
:1023A000410000004000000040000000400000002C
:1023B000400000004000000040000000400000001D
:1023C0003F0000003F0000003F0000003F00000011
:1023D0003F0000003F0000003F0000003E00000002
:1023E0003E0000003E0000003E0000003E000000F5
:1023F0003E0000003E0000003E0000003D000000E6
:102400003D0000003D0000003D0000003D000000D8
:102410003D0000003D0000003C0000003C000000CA
:102420003C0000003C0000003C0000003C000000BC
:102430003C0000003C0000003B0000003B000000AE
:102440003B0000003B0000003B0000003B000000A0
:102450003B0000003B0000003A0000003A00000092
:102460003A0000003A0000003A0000003A00000084
:102470003A00000039000000390000003900000077
:102480003900000039000000390000003900000068
:10249000390000003800000038000000380000005B
:1024A000380000003800000038000000380000004C
:1024B000380000003700000037000000370000003F
:1024C0003700000037000000370000003700000030
:1024D0003700000036000000360000003600000023
:1024E0003600000036000000360000003600000014
:1024F0003600000035000000350000003500000007
:1025000035000000350000003500000035000000F7
:1025100035000000340000003400000034000000EA
:1025200034000000340000003400000034000000DB
:1025300034000000340000003300000033000000CD
:1025400033000000330000003300000033000000BF
:1025500033000000330000003200000032000000B1
:1025600032000000320000003200000032000000A3
:102570003200000032000000310000003100000095
:102580003100000031000000310000003100000087
:102590003100000031000000310000003000000078
:1025A000300000003000000030000000300000006B
:1025B0003000000030000000300000002F0000005C
:1025C0002F0000002F0000002F0000002F0000004F
:1025D0002F0000002F0000002F0000002F0000003F
:1025E0002E0000002E0000002E0000002E00000033
:1025F0002E0000002E0000002E0000002E00000023
:102600002D0000002D0000002D0000002D00000016
:102610002D0000002D0000002D0000002D00000006
:102620002D0000002C0000002C0000002C000000F9
:102630002C0000002C0000002C0000002C000000EA
:102640002C0000002C0000002B0000002B000000DC
:102650002B0000002B0000002B0000002B000000CE
:102660002B0000002B0000002A0000002A000000C0
:102670002A0000002A0000002A0000002A000000B2
:102680002A0000002A0000002A00000029000000A3
:102690002900000029000000290000002900000096
:1026A0002900000029000000290000002900000086
:1026B000280000002800000028000000280000007A
:1026C000280000002800000028000000280000006A
:1026D000280000002700000027000000270000005D
:1026E000270000002700000027000000270000004E
:1026F0002700000026000000260000002600000041
:102700002600000026000000260000002600000031
:102710002600000026000000250000002500000023
:102720002500000025000000250000002500000015
:102730002500000025000000250000002400000006
:1027400024000000240000002400000024000000F9
:1027500024000000240000002400000024000000E9
:1027600023000000230000002300000023000000DD
:1027700023000000230000002300000023000000CD
:1027800023000000220000002200000022000000C0
:1027900022000000220000002200000022000000B1
:1027A00022000000220000002100000021000000A3
:1027B0002100000021000000210000002100000095
:1027C0002100000021000000200000002000000087
:1027D0002000000020000000200000002000000079
:1027E0002000000020000000200000001F0000006A
:1027F0001F0000001F0000001F0000001F0000005D
:102800001F0000001F0000001F0000001F0000004C
:102810001E0000001E0000001E0000001E00000040
:102820001E0000001E0000001E0000001E00000030
:102830001E0000001D0000001D0000001D00000023
:102840001D0000001D0000001D0000001D00000014
:102850001D0000001C0000001C0000001C00000007
:102860001C0000001C0000001C0000001C000000F8
:102870001C0000001C0000001B0000001B000000EA
:102880001B0000001B0000001B0000001B000000DC
:102890001B0000001B0000001B0000001A000000CD
:1028A0001A0000001A0000001A0000001A000000C0
:1028B0001A0000001A0000001A00000019000000B1
:1028C00019000000190000001900000019000000A4
:1028D0001900000019000000190000001900000094
:1028E0001800000018000000180000001800000088
:1028F0001800000018000000180000001800000078
:10290000170000001700000017000000170000006B
:10291000170000001700000017000000170000005B
:10292000160000001600000016000000160000004F
:10293000160000001600000016000000160000003F
:102940001500000015000000150000001500000033
:102950001500000015000000150000001500000023
:102960001500000014000000140000001400000016
:102970001400000014000000140000001400000007
:1029800014000000130000001300000013000000FA
:1029900013000000130000001300000013000000EB
:1029A00012000000120000001200000012000000DF
:1029B00012000000120000001200000012000000CF
:1029C00011000000110000001100000011000000C3
:1029D00011000000110000001100000011000000B3
:1029E00010000000100000001000000010000000A7
:1029F0001000000010000000100000001000000097
:102A00000F0000000F0000000F0000000F0000008A
:102A10000F0000000F0000000F0000000E0000007B
:102A20000E0000000E0000000E0000000E0000006E
:102A30000E0000000E0000000D0000000D00000060
:102A40000D0000000D0000000D0000000D00000052
:102A50000D0000000D0000000C0000000C00000044
:102A60000C0000000C0000000C0000000C00000036
:102A70000C0000000B0000000B0000000B00000029
:102A80000B0000000B0000000B0000000B0000001A
:102A90000A0000000A0000000A0000000A0000000E
:102AA0000A0000000A0000000A00000009000000FF
:102AB00009000000090000000900000009000000F2
:102AC00009000000080000000800000008000000E5
:102AD00008000000080000000800000008000000D6
:102AE00007000000070000000700000007000000CA
:102AF00007000000070000000700000006000000BB
:102B000006000000060000000600000006000000AD
:102B100006000000050000000500000005000000A0
:102B20000500000005000000050000000400000092
:102B30000400000004000000040000000400000085
:102B40000400000003000000030000000300000078
:102B5000030000000300000003000000020000006A
:102B6000020000000200000002000000020000005D
:102B70000200000001000000010000000100000050
:102B80000100000001000000010000000000000042
:102B90000000000000000000000000000000000035
:102BA000FFFF0000FFFF0000FFFF0000FFFF00002D
:102BB000FFFF0000FEFF0000FEFF0000FEFF000020
:102BC000FEFF0000FEFF0000FEFF0000FDFF000012
:102BD000FDFF0000FDFF0000FDFF0000FDFF000005
:102BE000FCFF0000FCFF0000FCFF0000FCFF0000F9
:102BF000FCFF0000FBFF0000FBFF0000FBFF0000EC
:102C0000FBFF0000FBFF0000FAFF0000FAFF0000DE
:102C1000FAFF0000FAFF0000F9FF0000F9FF0000D2
:102C2000F9FF0000F9FF0000F9FF0000F8FF0000C5
:102C3000F8FF0000F8FF0000F8FF0000F7FF0000B9
:102C4000F7FF0000F7FF0000F7FF0000F7FF0000AC
:102C5000F6FF0000F6FF0000F6FF0000F6FF0000A0
:102C6000F5FF0000F5FF0000F5FF0000F5FF000094
:102C7000F4FF0000F4FF0000F4FF0000F4FF000088
:102C8000F3FF0000F3FF0000F3FF0000F3FF00007C
:102C9000F2FF0000F2FF0000F2FF0000F1FF000071
:102CA000F1FF0000F1FF0000F1FF0000F0FF000065
:102CB000F0FF0000F0FF0000F0FF0000EFFF000059
:102CC000EFFF0000EFFF0000EEFF0000EEFF00004E
:102CD000EEFF0000EDFF0000EDFF0000EDFF000043
:102CE000ECFF0000ECFF0000ECFF0000EBFF000039
:102CF000EBFF0000EBFF0000EAFF0000EAFF00002E
:102D0000EAFF0000E9FF0000E9FF0000E8FF000023
:102D1000E8FF0000E8FF0000E7FF0000E7FF000019
:102D2000E6FF0000E6FF0000E6FF0000E5FF000010
:102D3000E5FF0000E4FF0000E4FF0000E3FF000007
:102D4000E3FF0000E2FF0000E2FF0000E1FF0000FF
:102D5000E1FF0000E0FF0000E0FF0000DFFF0000F7
:102D6000DEFF0000DEFF0000DDFF0000DDFF0000F1
:102D7000DCFF0000DBFF0000DBFF0000DAFF0000EB
:102D8000D9FF0000D9FF0000D8FF0000D7FF0000E6
:102D9000D6FF0000D5FF0000D4FF0000D3FF0000E5
:102DA000D2FF0000D1FF0000D0FF0000CFFF0000E5
:102DB000CEFF0000CEFF0000CEFF0000CEFF0000DF
:102DC000CEFF0000CEFF0000CEFF0000CEFF0000CF
:102DD000CEFF0000CEFF0000CEFF0000CEFF0000BF
:102DE000CEFF000096000000960000009600000054
:102DF000960000009600000096000000960000007B
:102E0000960000009600000096000000960000006A
:102E1000960000009600000096000000960000005A
:102E2000960000009600000096000000960000004A
:102E3000960000009600000096000000960000003A
:102E4000960000009600000096000000960000002A
:102E5000960000009600000096000000960000001A
:102E6000960000009600000096000000960000000A
:102E700096000000960000009600000096000000FA
:102E800096000000960000009600000096000000EA
:102E900096000000960000009600000096000000DA
:102EA00096000000960000009600000096000000CA
:102EB00096000000960000009600000096000000BA
:102EC00096000000950000009500000094000000AE
:102ED00093000000920000009100000090000000AC
:102EE00090000000900000008F0000008E000000A5
:102EF0008D0000008C0000008B0000008B000000A3
:102F00008B0000008A0000008A0000008900000099
:102F10008800000087000000860000008600000096
:102F2000860000008600000085000000840000008C
:102F30008400000083000000820000008100000087
:102F4000810000008100000081000000800000007E
:102F5000800000007F0000007F0000007E00000075
:102F60007D0000007C0000007C0000007C00000070
:102F70007C0000007C0000007B0000007A00000064
:102F80007900000078000000770000007600000063
:102F9000760000007500000074000000730000005F
:102FA0007200000071000000700000006F0000005F
:102FB0006E0000006D0000006D0000006D0000005C
:102FC0006D0000006D0000006D0000006C0000004E
:102FD0006C0000006C0000006C0000006C00000041
:102FE0006B0000006B0000006B0000006B00000035
:102FF0006A0000006A0000006A0000006A00000029
:10300000690000006800000068000000680000001F
:103010006800000068000000680000006800000010
:103020006700000067000000660000006600000006
:1030300066000000660000006500000065000000FA
:1030400064000000630000006300000063000000F3
:1030500063000000630000006300000063000000E4
:1030600063000000620000006200000062000000D7
:1030700061000000610000006100000061000000CC
:103080006000000060000000600000005F000000C1
:103090005E0000005E0000005E0000005E000000B8
:1030A0005E0000005E0000005E0000005E000000A8
:1030B0005E0000005E0000005E0000005D00000099
:1030C0005C0000005C0000005C0000005C00000090
:1030D0005C0000005B0000005B0000005B00000083
:1030E0005A0000005900000059000000590000007B
:1030F000590000005900000059000000590000006C
:10310000590000005900000059000000590000005B
:10311000580000005800000058000000580000004F
:10312000580000005800000058000000580000003F
:10313000580000005800000058000000580000002F
:10314000580000005800000058000000580000001F
:103150005800000058000000580000005700000010
:103160005700000057000000570000005700000003
:1031700057000000570000005700000057000000F3
:1031800057000000560000005600000056000000E6
:1031900056000000560000005600000056000000D7
:1031A00056000000560000005500000054000000CA
:1031B00054000000540000005400000054000000BF
:1031C00054000000540000005400000054000000AF
:1031D00054000000540000005400000053000000A0
:1031E0005300000053000000530000005300000093
:1031F0005200000052000000520000005200000087
:103200005200000052000000510000005100000078
:10321000510000005100000051000000500000006B
:103220004F0000004F0000004F0000004F00000062
:103230004F0000004F0000004F0000004F00000052
:103240004F0000004F0000004F0000004F00000042
:103250004F0000004F0000004E0000004E00000034
:103260004E0000004E0000004E0000004D00000027
:103270004D0000004D0000004D0000004D0000001A
:103280004D0000004C0000004C0000004C0000000D
:103290004C0000004C0000004C0000004B000000FF
:1032A0004A0000004A0000004A0000004A000000F6
:1032B0004A0000004A0000004A0000004A000000E6
:1032C0004A0000004A0000004A0000004A000000D6
:1032D0004A0000004A0000004A00000049000000C7
:1032E00049000000490000004900000049000000BA
:1032F00049000000480000004800000048000000AD
:10330000480000004800000048000000480000009D
:103310004700000047000000470000004700000091
:103320004700000047000000460000004500000084
:103330004500000045000000450000004500000079
:103340004500000045000000450000004500000069
:103350004500000045000000450000004500000059
:10336000450000004500000045000000440000004A
:10337000440000004400000044000000440000003D
:103380004400000043000000430000004300000030
:103390004300000043000000430000004300000021
:1033A0004300000042000000420000004200000014
:1033B0004200000042000000420000004200000005
:1033C00041000000400000004000000040000000FC
:1033D00040000000400000004000000040000000ED
:1033E00040000000400000004000000040000000DD
:1033F00040000000400000004000000040000000CD
:1034000040000000400000003F0000003F000000BE
:103410003F0000003F0000003F0000003F000000B0
:103420003F0000003E0000003E0000003E000000A3
:103430003E0000003E0000003E0000003E00000094
:103440003E0000003D0000003D0000003D00000087
:103450003D0000003D0000003D0000003D00000078
:103460003C0000003B0000003B0000003B0000006F
:103470003B0000003B0000003B0000003B00000060
:103480003B0000003B0000003B0000003B00000050
:103490003B0000003B0000003B0000003B00000040
:1034A0003B0000003B0000003B0000003A00000031
:1034B0003A0000003A0000003A0000003A00000024
:1034C0003A0000003A0000003A0000003900000015
:1034D0003900000039000000390000003900000008
:1034E00039000000390000003900000038000000F9
:1034F00038000000380000003800000038000000EC
:1035000038000000380000003800000037000000DC
:1035100036000000360000003600000036000000D3
:1035200036000000360000003600000036000000C3
:1035300036000000360000003600000036000000B3
:1035400036000000360000003600000036000000A3
:103550003600000036000000360000003500000094
:103560003500000035000000350000003500000087
:103570003500000035000000350000003400000078
:10358000340000003400000034000000340000006B
:10359000340000003400000034000000340000005B
:1035A000330000003300000033000000330000004F
:1035B000330000003300000033000000330000003F
:1035C0003300000032000000310000003100000034
:1035D0003100000031000000310000003100000027
:1035E0003100000031000000310000003100000017
:1035F0003100000031000000310000003100000007
:1036000031000000310000003100000031000000F6
:1036100030000000300000003000000030000000EA
:1036200030000000300000003000000030000000DA
:10363000300000002F0000002F0000002F000000CD
:103640002F0000002F0000002F0000002F000000BE
:103650002F0000002F0000002F0000002E000000AF
:103660002E0000002E0000002E0000002E000000A2
:103670002E0000002E0000002E0000002D00000093
:103680002C0000002C0000002C0000002C0000008A
:103690002C0000002C0000002C0000002C0000007A
:1036A0002C0000002C0000002C0000002C0000006A
:1036B0002C0000002C0000002C0000002C0000005A
:1036C0002C0000002C0000002B0000002B0000004C
:1036D0002B0000002B0000002B0000002B0000003E
:1036E0002B0000002B0000002B0000002B0000002E
:1036F0002A0000002A0000002A0000002A00000022
:103700002A0000002A0000002A0000002A00000011
:103710002A00000029000000290000002900000004
:1037200029000000290000002900000029000000F5
:1037300029000000290000002800000027000000E8
:1037400027000000270000002700000027000000DD
:1037500027000000270000002700000027000000CD
:1037600027000000270000002700000027000000BD
:1037700027000000270000002700000027000000AD
:1037800027000000260000002600000026000000A0
:103790002600000026000000260000002600000091
:1037A0002600000026000000260000002500000082
:1037B0002500000025000000250000002500000075
:1037C0002500000025000000250000002500000065
:1037D0002400000024000000240000002400000059
:1037E0002400000024000000240000002400000049
:1037F000240000002300000022000000220000003E
:103800002200000022000000220000002200000030
:103810002200000022000000220000002200000020
:103820002200000022000000220000002200000010
:103830002200000022000000220000002100000001
:1038400021000000210000002100000021000000F4
:1038500021000000210000002100000021000000E4
:1038600020000000200000002000000020000000D8
:1038700020000000200000002000000020000000C8
:10388000200000001F0000001F0000001F000000BB
:103890001F0000001F0000001F0000001F000000AC
:1038A0001F0000001F0000001E0000001D0000009F
:1038B0001D0000001D0000001D0000001D00000094
:1038C0001D0000001D0000001D0000001D00000084
:1038D0001D0000001D0000001D0000001D00000074
:1038E0001D0000001D0000001D0000001C00000065
:1038F0001C0000001C0000001C0000001C00000058
:103900001C0000001C0000001C0000001C00000047
:103910001C0000001B0000001B0000001B0000003A
:103920001B0000001B0000001B0000001B0000002B
:103930001B0000001B0000001A0000001A0000001D
:103940001A0000001A0000001A0000001A0000000F
:103950001A0000001A000000190000001800000002
:1039600018000000180000001800000018000000F7
:1039700018000000180000001800000018000000E7
:1039800018000000180000001800000018000000D7
:1039900018000000180000001700000017000000C9
:1039A00017000000170000001700000017000000BB
:1039B00017000000170000001700000016000000AC
:1039C000160000001600000016000000160000009F
:1039D000160000001600000016000000160000008F
:1039E0001500000015000000150000001500000083
:1039F0001500000015000000150000001400000074
:103A0000130000001300000013000000130000006A
:103A1000130000001300000013000000130000005A
:103A2000130000001300000013000000130000004A
:103A3000130000001300000012000000120000003C
:103A4000120000001200000012000000120000002E
:103A5000120000001200000012000000110000001F
:103A60001100000011000000110000001100000012
:103A70001100000011000000100000001000000004
:103A800010000000100000001000000010000000F6
:103A9000100000000F0000000E0000000E000000EB
:103AA0000E0000000E0000000E0000000E000000DE
:103AB0000E0000000E0000000E0000000E000000CE
:103AC0000E0000000E0000000D0000000D000000C0
:103AD0000D0000000D0000000D0000000D000000B2
:103AE0000D0000000D0000000C0000000C000000A4
:103AF0000C0000000C0000000C0000000C00000096
:103B00000C0000000B0000000B0000000B00000088
:103B10000B0000000B0000000B0000000B00000079
:103B20000A00000009000000090000000900000070
:103B30000900000009000000090000000900000061
:103B40000900000009000000090000000800000052
:103B50000800000008000000080000000800000045
:103B60000800000008000000080000000700000036
:103B70000700000007000000070000000700000029
:103B8000070000000600000006000000060000001C
:103B90000600000006000000050000000400000010
:103BA0000400000004000000040000000400000005
:103BB00004000000040000000400000004000000F5
:103BC00003000000030000000300000003000000E9
:103BD00003000000030000000300000002000000DA
:103BE00002000000020000000200000002000000CD
:103BF00001000000010000000100000001000000C1
:103C00000100000000000000FFFF0000FFFF0000B7
:103C1000FFFF0000FFFF0000FFFF0000FFFF0000AC
:103C2000FFFF0000FEFF0000FEFF0000FEFF00009F
:103C3000FEFF0000FEFF0000FEFF0000FDFF000091
:103C4000FDFF0000FDFF0000FDFF0000FDFF000084
:103C5000FCFF0000FCFF0000FCFF0000FCFF000078
:103C6000FBFF0000FAFF0000FAFF0000FAFF00006F
:103C7000FAFF0000FAFF0000FAFF0000F9FF000061
:103C8000F9FF0000F9FF0000F9FF0000F9FF000054
:103C9000F8FF0000F8FF0000F8FF0000F8FF000048
:103CA000F7FF0000F7FF0000F7FF0000F7FF00003C
:103CB000F6FF0000F5FF0000F5FF0000F5FF000033
:103CC000F5FF0000F5FF0000F4FF0000F4FF000026
:103CD000F4FF0000F4FF0000F3FF0000F3FF00001A
:103CE000F3FF0000F2FF0000F2FF0000F2FF00000F
:103CF000F1FF0000F0FF0000F0FF0000F0FF000007
:103D0000F0FF0000EFFF0000EFFF0000EFFF0000FA
:103D1000EEFF0000EEFF0000EEFF0000EDFF0000F0
:103D2000EDFF0000ECFF0000EBFF0000EBFF0000E8
:103D3000EBFF0000EAFF0000EAFF0000EAFF0000DE
:103D4000E9FF0000E9FF0000E8FF0000E8FF0000D5
:103D5000E7FF0000E6FF0000E6FF0000E5FF0000CF
:103D6000E5FF0000E4FF0000E4FF0000E3FF0000C7
:103D7000E2FF0000E1FF0000E0FF0000DFFF0000C5
:103D8000DEFF0000DDFF0000DCFF0000DBFF0000C5
:103D9000DAFF0000D9FF0000D8FF0000D7FF0000C5
:103DA000D6FF0000D5FF0000D4FF0000D3FF0000C5
:103DB000D2FF0000D1FF0000D0FF0000CFFF0000C5
:103DC000CEFF0000CEFF0000CEFF0000CEFF0000BF
:103DD000CEFF0000CEFF0000CEFF0000CEFF0000AF
:103DE000CEFF0000000700000E0900001C1B0000B1
:103DF00012150000383F0000363100002423000077
:103E00002A2D0000707700007E7900006C6B0000A6
:103E100062650000484F0000464100005453000016
:103E20005A5D0000E0E70000EEE90000FCFB000046
:103E3000F2F50000D8DF0000D6D10000C4C30000B6
:103E4000CACD0000909700009E9900008C8B000066
:103E500082850000A8AF0000A6A10000B4B3000056
:103E6000BABD0000C7C00000C9CE0000DBDC000006
:103E7000D5D20000FFF80000F1F60000E3E40000F6
:103E8000EDEA0000B7B00000B9BE0000ABAC000026
:103E9000A5A200008F880000818600009394000096
:103EA0009D9A000027200000292E00003B3C0000C6
:103EB000353200001F180000111600000304000036
:103EC0000D0A000057500000595E00004B4C0000E6
:103ED000454200006F6800006166000073740000D6
:103EE0007D7A0000898E0000878000009592000096
:103EF0009B9C0000B1B60000BFB80000ADAA000056
:103F0000A3A40000F9FE0000F7F00000E5E20000C5
:103F1000EBEC0000C1C60000CFC80000DDDA0000F5
:103F2000D3D40000696E0000676000007572000065
:103F30007B7C0000515600005F5800004D4A000095
:103F400043440000191E0000171000000502000085
:103F50000B0C0000212600002F2800003D3A000035
:103F6000333400004E490000404700005255000025
:103F70005C5B000076710000787F00006A6D0000D5
:103F8000646300003E390000303700002225000045
:103F90002C2B000006010000080F00001A1D000075
:103FA00014130000AEA90000A0A70000B2B50000E5
:103FB000BCBB000096910000989F00008A8D000015
:103FC00084830000DED90000D0D70000C2C5000005
:103FD000CCCB0000E6E10000E8EF0000FAFD0000B5
:103FE000F4F3000000000000C1C0000081C1000027
:103FF0004001000001C30000C00300008002000077
:1040000041C2000001C60000C00600008007000099
:1040100041C7000000050000C1C5000081C40000C8
:104020004004000001CC0000C00C0000800D000026
:1040300041CD0000000F0000C1CF000081CE000084
:10404000400E0000000A0000C1CA000081CB000041
:10405000400B000001C90000C009000080080000FA
:1040600041C8000001D80000C018000080190000FD
:1040700041D90000001B0000C1DB000081DA000014
:10408000401A0000001E0000C1DE000081DF0000B9
:10409000401F000001DD0000C01D0000801C00006A
:1040A00041DC000000140000C1D4000081D50000F4
:1040B0004015000001D70000C01700008016000066
:1040C00041D6000001D20000C012000080130000A1
:1040D00041D3000000110000C1D1000081D00000D8
:1040E0004010000001F00000C030000080310000EE
:1040F00041F1000000330000C1F3000081F2000034
:104100004032000000360000C1F6000081F70000D8
:104110004037000001F50000C03500008034000089
:1041200041F40000003C0000C1FC000081FD0000E3
:10413000403D000001FF0000C03F0000803E000045
:1041400041FE000001FA0000C03A0000803B000080
:1041500041FB000000390000C1F9000081F80000B7
:104160004038000000280000C1E8000081E900009C
:104170004029000001EB0000C02B0000802A000055
:1041800041EA000001EE0000C02E0000802F000078
:1041900041EF0000002D0000C1ED000081EC0000A7
:1041A000402C000001E40000C02400008025000035
:1041B00041E5000000270000C1E7000081E60000A3
:1041C0004026000000220000C1E2000081E3000060
:1041D0004023000001E10000C02100008020000019
:1041E00041E0000001A00000C0600000806100000C
:1041F00041A1000000630000C1A3000081A20000F3
:104200004062000000660000C1A6000081A7000017
:104210004067000001A50000C06500008064000048
:1042200041A40000006C0000C1AC000081AD0000A2
:10423000406D000001AF0000C06F0000806E000004
:1042400041AE000001AA0000C06A0000806B0000BF
:1042500041AB000000690000C1A9000081A8000076
:104260004068000000780000C1B8000081B900007B
:104270004079000001BB0000C07B0000807A000094
:1042800041BA000001BE0000C07E0000807F000037
:1042900041BF0000007D0000C1BD000081BC0000E6
:1042A000407C000001B40000C07400008075000074
:1042B00041B5000000770000C1B7000081B60000E2
:1042C0004076000000720000C1B2000081B300001F
:1042D0004073000001B10000C07100008070000058
:1042E00041B0000000500000C1900000819100002A
:1042F0004051000001930000C053000080520000B4
:104300004192000001960000C05600008057000056
:104310004197000000550000C19500008194000005
:1043200040540000019C0000C05C0000805D000063
:10433000419D0000005F0000C19F0000819E0000C1
:10434000405E0000005A0000C19A0000819B0000FE
:10435000405B000001990000C05900008058000037
:104360004198000001880000C0480000804900001A
:1043700041890000004B0000C18B0000818A0000D1
:10438000404A0000004E0000C18E0000818F0000F6
:10439000404F0000018D0000C04D0000804C000027
:1043A000418C000000440000C184000081850000B1
:1043B0004045000001870000C04700008046000023
:1043C0004186000001820000C042000080430000DE
:1043D0004183000000410000C18100008180000095
:1043E00040400000889FBE000044780081047800AF
:1043F0008900780008407800F52407000884FB0055
:1044000088844400194068000080FB000000E90037
:104410004F00DE004F04BE0000000600A1CAB3003A
:10442000803E210001487800A1C2B3000000E800EE
:10443000014878004E230700A13E21008048780003
:10444000861907004801DE00B13E2100824878004D
:104450008100E800804878008A1907004801DE00E2
:10446000D13E2100824878008100E8008048780031
:10447000670E07004801DE00F13E21008248780007
:104480008100E8008048780030C880004801DE00E4
:104490008100E800824878008100E80080487800C8
:1044A00000C880004801DE008100E80082487800F2
:1044B0008100E80080487800D0D02000D19A8000A8
:1044C0000100E000010032001010B1004801DE00E0
:1044D000513F2100824878008100E8008048780040
:1044E000F91607004801DE00713F2100824878007C
:1044F0008100E80080487800AF130700913F210059
:104500008048EB008100E80080487800D622070050
:104510004801DE00D13F2100824878008100E90097
:1045200080487800D42207004801DE00F13F2100D6
:10453000824878008100E90080487800C6220700A0
:104540004801DE0011402100824878008100E90026
:1045500080487800C62207004801DE003140210073
:10456000824878008100E90080487800C422070072
:104570004801DE0051402100824878008100E900B6
:1045800080487800B62207004801DE007140210013
:10459000824878008100E90080487800D423070031
:1045A0004801DE0091402100824878008100E90046
:1045B00080487800F42307004801DE00B140210064
:1045C000824878008100E90080487800C0C98000F6
:1045D0004801DE00E3804000824878008100E90065
:1045E00080487800F0C780004801DE00E38040008A
:1045F000824878008100E90080487800EE1B0700BF
:104600001141210080487800EE1B07000141210084
:1046100080487800C80907002141210080487800BF
:10462000000006000000E00008003A00A19A8000A7
:104630008100E800A19A8800E38F50000500360051
:10464000A09A880010002000020037000000EB0054
:10465000A09A8800000006000000EB00B0998800D6
:10466000909A88008040EB00E234210000497800F5
:10467000F034210001487800C0342100014878005E
:1046800000000600B0998000E10F500003003A00DE
:10469000909A80000000E800909A8800700C20003A
:1046A000919A8000808F50000B003600C0998000E6
:1046B0000000E00006003A00B1CFB30060352100F1
:1046C0000148780010002000C0998800E2FF070030
:1046D0000000EB00909A880000000600E1412100F4
:1046E00052CAB300824878000101E800004978000E
:1046F00020C0B30036240700014221008048780022
:1047000021C0B300D0342100014878000000060029
:10471000EA874700889FBE008A9FBE008C9FBE002C
:104720008E1F7800A2C0B30000832100010020008A
:10473000E7060700427F2A008000EB0076805700E2
:10474000840A0700A83421002FE89700004C780065
:1047500042C120008000EB00768057007D0A0700F0
:10476000DFB4970080C0EB0098CF10002C003A0017
:10477000A2C0B3008082210001002000D4060700FF
:10478000221407000084FB00A2C0B3008082210035
:1047900001002000CE06070061004000E0804800D4
:1047A0001A1407004800DD0008047000B2C0B3000E
:1047B0008082210001002000C506070013140700B5
:1047C0000085FB00B2C0B300808221000100200000
:1047D000BF06070061004000E08048000B1407009E
:1047E0004800DD000A057000890F540004003A00FB
:1047F000A1C0B300A03421000148780008003700B0
:10480000890F550004003A00B1C0B300A034210064
:104810000148780002003700A03421000048EB0076
:10482000BDC0B3000007EB00EB4121000CC3B30097
:1048300068C55600EEEF9F006A41470000832100E3
:1048400001002000A20607000004BE00EFE8970068
:104850000104E0000B003A00F0FF200011002000EE
:10486000EA130700A1CAB300814F500008003A00C4
:104870006C004400E0804C00F0B79F0081BF9F00B7
:104880000E003700EFE89700E1CF5000040032003F
:10489000A1342100114078000041EB001C003700DA
:1048A000F0FF200021002000D8130700A1CAB300A8
:1048B000814F5000F6FF3A00EDFF37000800BE00C0
:1048C000D21307008A80FB00818045008048780071
:1048D00061004400E0804C00CC1307008A40E800EF
:1048E0008180FB0081804500804878000AC5E8008F
:1048F00063044400E0844C007FB097008FB89700B9
:10490000880F5000898F5800ECFF3A0013003700E1
:104910008A80FB00818045008C4878008A40E8004E
:104920008180FB00818045008C4878000AC5E80042
:104930000004E000050032008080FB00EA805000A7
:104940008E8F500001003A00024078008D4F5500D4
:10495000EFFF3A00A1342100804878000E07E800FC
:10496000E8C64600E20F5700B1FF3A0019432100A4
:104970008AC120008005EB0008C220000A017800EF
:104980008B00780076805700F20907002FE8970027
:10499000804C78000A0178008B0078007680570000
:1049A000EC090700BFE89700914498000A85E800E9
:1049B0008984E800880F5500F0FF3A0099432100F0
:1049C0000ABE20008005EB0088BE20000A017800A6
:1049D0008B00780076805700DE0907002FE89700EB
:1049E000804C78000A0178008B00780076805700B0
:1049F000D8090700BFE89700914498000A85E800AD
:104A00008984E800880F5500F0FF3A004F077800CE
:104A10004F06BE004F05BE004F04BE00AF00B10000
:104A200000000600881F78000044780038FF070067
:104A3000E1412100B0CBB3008048780032C2B3001E
:104A40000100E800024878000000E800084878000B
:104A5000A23421001002B0001248780040C2B30016
:104A60005B230700214421008048780041C2B30045
:104A7000D0342100014878004F047800000006007F
:104A80002D090700E10F500008003A005E0A0700F8
:104A9000E10F500007003A00B6050700E14F500053
:104AA00004003A00250707000200370020C5B300C4
:104AB00027090700603521001040780007FF070034
:104AC00000000600E14F50000A00320005003900E6
:104AD000E24F50000B003200E54F500010003A004A
:104AE0000C003700830807000040EB00250A070090
:104AF0000D00370082080700A0C0B300210A07009C
:104B0000090037007E080700B0C0B3001D0A070087
:104B1000050037007A0807007C080700020037000C
:104B200040C5B3000A090700603521001040780035
:104B3000EAFE070000000600881F780000447800A5
:104B400010060700E10F50000C003A00DA050700DC
:104B50000001BE0031C0B3001042210082130700E3
:104B6000D505070063014000E081480031C0B30073
:104B7000504221007C1307000D00370000C0EB00FD
:104B800011422100804878008100E80080487800C8
:104B90008100E800804878008180E8008048780043
:104BA0008100E800804878008100E80080487800B3
:104BB000E1412100B0CBB30080487800A2C0B3002F
:104BC0000100E800024878000000E800084878008A
:104BD0000040EB006681400000497800640141001C
:104BE00000497800B0C0B300F922070091422100CB
:104BF00080487800B1C0B300D0342100014878006B
:104C00004F04780000000600881F7800E84121006A
:104C1000B1CBB300014C780032C0B3008800E8008B
:104C2000824878008100E800804878003E0507004F
:104C3000E3004400804878008800780040C0B3005A
:104C4000E3220700E40044008048780041C0B3003C
:104C5000D0342100014878004F047800000006009D
:104C6000881F7800E8412100B1CBB300014C7800E7
:104C700032C0B3008800E800824878008100E80074
:104C8000804878002B050700E30044008048780046
:104C90008800780040C0B300CD220700E400440043
:104CA0008048780041C0B300D0342100014878002A
:104CB0004F04780000000600E1412100B2CBB300B0
:104CC0008248780043C0B3000101E800034978003E
:104CD0000201E8000049780082452100638040001D
:104CE000124878000201E8000000E800124878004D
:104CF00050C0B300B622070031422100804878003E
:104D000051C0B300D03421000148780000000600F3
:104D1000881F7800083521001880FB00F1D2800040
:104D200000804000104078009B2107001840780068
:104D300011352100914F50000C003A000000EB00AB
:104D4000F0CB880010002000D0998800E0412100BD
:104D5000F1D28000808F500002003A000000EB008A
:104D6000C09988002188A900020037000135210080
:104D70008048E8004F047800000006003600F80084
:104D8000809FBE00829FBE00849FBE00869FBE00A3
:104D90002200F8002400F8002600F8002800F8009F
:104DA0002A00F8002C00F8000188A900D8FF0700AD
:104DB0002C00F9002A00F9002800F9002600F9006B
:104DC0002400F9002200F9004F03BE004F02BE008C
:104DD0004F01BE004F00BE003600F9000040060043
:104DE0000000060010002000F09988000000060076
:104DF000F0998000000006000000EB00F0998800A8
:104E000000000600881F780018002000089A88001B
:104E1000D89A8800C00320005111070008007800CC
:104E20004F0478000000060010002000109A88004F
:104E30008000EB00D19A8800000006000104E00029
:104E4000080032008041EB000382FB008402410035
:104E500004024000944A78008341E80083CF500068
:104E6000F9FF3A000000060010002000D0D18800B1
:104E70000000060010002000E0D18800513B210016
:104E800011417800A137210082487800613B210060
:104E900091407800B33721008149780043452100D3
:104EA000824978000301E80001497800000006000B
:104EB000D09B8000000006000080FB00C13721006D
:104EC000008040001040780000000600881F780035
:104ED000E8412100B1CBB300014C780032C1B300EE
:104EE0008800E800824878008100E8008048780067
:104EF0000040EB00F0FF0700E3004400804878002A
:104F000010C0B300ECFF0700E400440080487800C4
:104F100020C0B300E8FF0700E500440080487800A7
:104F200030C0B300E4FF0700E6004400804878008A
:104F300040C0B300E0FF0700E7004400804878006D
:104F400050C0B300DCFF0700E80044008048780050
:104F500060C0B300D8FF0700E90044008048780033
:104F600070C0B300D4FF0700EA0044008048780016
:104F700080C0B300D0FF0700EB00440080487800F9
:104F800090C0B300CCFF0700EC00440080487800DC
:104F9000A0C0B300C8FF0700ED00440080487800BF
:104FA000B0C0B300C4FF0700EE00440080487800A2
:104FB000C0C0B300C0FF0700EF0044008048780085
:104FC000D0C0B300BCFF0700F00044008048780068
:104FD000E0C0B300B8FF0700F1004400804878004B
:104FE000F0C0B300B4FF0700F2004400804878002E
:104FF00000C1B300B0FF0700F30044008048780010
:105000008800780040C1B300F1210700F40044009B
:105010008048780041C1B300D034210001487800B5
:105020004F04780000000600881F7800E841210046
:10503000B1CBB300014C7800F2C0B3008800E800A7
:10504000824878008100E800804878000040EB004A
:1050500099FF0700E30044008048780010C0B300C7
:1050600095FF0700E40044008048780020C0B300AA
:1050700091FF0700E50044008048780030C0B3008D
:105080008DFF0700E60044008048780040C0B30070
:1050900089FF0700E70044008048780050C0B30053
:1050A00085FF0700E80044008048780060C0B30036
:1050B00081FF0700E90044008048780070C0B30019
:1050C0007DFF0700EA0044008048780080C0B300FC
:1050D00079FF0700EB0044008048780090C0B300DF
:1050E00075FF0700EC00440080487800A0C0B300C2
:1050F00071FF0700ED00440080487800B0C0B300A5
:105100006DFF0700EE00440080487800C0C0B30087
:1051100069FF0700EF0044008048780088007800AD
:1051200000C1B300AA210700F000440080487800C5
:1051300001C1B300D0342100014878004F04780049
:1051400000000600881F7800E8412100B1CBB300C1
:10515000014C7800A2C0B3008800E80082487800C3
:105160008100E800804878000040EB0052FF070013
:10517000E30044008048780010C0B3004EFF0700F1
:10518000E40044008048780020C0B3004AFF0700D4
:10519000E50044008048780030C0B30046FF0700B7
:1051A000E60044008048780040C0B30042FF07009A
:1051B000E70044008048780050C0B3003EFF07007D
:1051C000E80044008048780060C0B3003AFF070060
:1051D000E90044008048780070C0B30036FF070043
:1051E000EA0044008048780088007800B0C0B3002E
:1051F00077210700EB00440080487800B1C0B3007D
:10520000D0342100014878004F04780000000600E7
:10521000C2372100A1C0B300503B210007FF0700A7
:105220001000200000000600C237210021C0B3009A
:10523000503B210001FF0700100020000000060085
:10524000C237210011C0B300503B2100FBFE070014
:1052500010002000000006001000200000000600E2
:10526000C237210011C0B300503B2100F3FE0700FC
:1052700010002000000006001000200000000600C2
:10528000C237210011C0B300503B2100EBFE0700E4
:105290001000200000000600503B21001040780064
:1052A0007135210080487800ED4F50001F003A0012
:1052B000613B210030912100114878008100E80015
:1052C0000000E900114878008100E8006300400018
:1052D000114878008100E8000000E90011487800DA
:1052E0008100E80063004000114878008100E80078
:1052F0000000E90011487800D09A80000000E0002A
:105300000A0032000100E80010407800E24F50002F
:1053100006003E000080FB000000400021912100BB
:1053200000804000100078000D10070010002000E1
:1053300000000600503B210010407800713521002C
:1053400080487800E44F500024003A00613B21007F
:1053500070362100114878008100E8000000E90063
:10536000114878008100E80090362100114878004B
:105370008100E8000000E900114878008100E800A1
:1053800030362100114878008100E8000000E90073
:10539000114878008100E80050362100114878005B
:1053A0008100E8000000E900114878008100E80071
:1053B000F0352100114878008100E8000000E90084
:1053C000114878008100E80010362100114878006B
:1053D0008100E8000000E90011487800100020007A
:1053E00000000600503B210010407800713521007C
:1053F00080487800E54F500030003A00613B2100C2
:10540000B0362100114878008100E8000000E90072
:10541000114878008100E800F0362100114878003A
:105420008100E8000000E900114878008100E800F0
:10543000D0362100114878008100E8000000E90022
:10544000114878008100E8001037210011487800E9
:105450008100E8000000E900114878008100E800C0
:1054600030372100114878008100E8000000E90091
:10547000114878008100E80063004000114878007E
:105480008100E8000000E900114878008100E80090
:1054900070372100114878008100E8000000E90021
:1054A000114878008100E80063004000114878004E
:1054B0008100E8000000E900114878001000200099
:1054C0000000060010002000000006001000200070
:1054D00000000600C09A800000000600A2A2800022
:1054E000B3A280000288BE00000006000400FA009B
:1054F000881F7800E8412100B1CBB300014C78004F
:1055000042C0B3008800E800824878008100E800CB
:105510008048780066805700F0FF07006300440071
:10552000AFF897000148780066805700EBFF07004E
:1055300064004400BFF897000148780088007800B4
:1055400050C0B300A2200700E50044008048780066
:1055500051C0B300D0342100014878004F047800D6
:105560000080FA0000000600003521000048EB0032
:1055700044FC0700C058210010407800E54F50005F
:1055800005003600C05821000048EB001000200044
:1055900050AC880002003700C15821008048E80064
:1055A000C0998000E10F50008C003A00B034210017
:1055B00010407800A1CAB300814F500008003A00A3
:1055C0006035210010407800E94F500002003A0099
:1055D00014FD07007800370040FC07007600370014
:1055E000B1CBB300814F500073003A006035210009
:1055F0001080FB008000EB006B005000E080580042
:1056000042032000820F5000E08F58006A003E00E5
:1056100000060100340037006700370066003700DD
:105620006500370064003700630037006200370010
:1056300061003700600037005F0037005E00370010
:105640005D0037005C0037005B0037005A00370010
:105650005900370058003700570037005600370010
:1056600055003700540037004B0037004D0037001D
:105670004F003700500037004F0037004E00370012
:105680004D0037004C0037004B0037003F0037001B
:105690004900370048003700470037004600370010
:1056A0004500370044003700430037001100370041
:1056B00041003700130037003F0037002A00370051
:1056C0003D003700110037003B003700290037004C
:1056D0003900370016003700370037002800370040
:1056E0003500370019003700B0C0B3007FFF070056
:1056F00031003700C037210010407800F1FC07006E
:105700002D003700DEFC07002B003700C0372100DA
:1057100010407800940207000040EB000C060700E0
:105720006035210010407800ECFB070022003700B4
:10573000C0372100104078000506070060352100C1
:1057400010407800E5FB07001B003700C037210040
:1057500010407800AD05070060352100104078004A
:10576000DEFB07001400370050C3B300F2FC070053
:105770001100370090C3B30023FD07000E0037006F
:10578000D0C3B30036FD07000B00370090C2B30052
:1057900049FD07000800370000C2B30069FE07009A
:1057A0000500370010C2B3001FFE070002003700DB
:1057B00020C2B300C5FD0700E0412100F0D28800FF
:1057C000D13421001035210011487800100020004C
:1057D000F0CB88002188A8001600370050AC80006C
:1057E000E10F500013003A000000EB0050AC8800BD
:1057F000C15821008048780008FB0700813E210045
:10580000B0C2B300F21F0700314121008048780088
:1058100050FD2F0001004000F0D28800B1C2B3005B
:10582000103521000148780010002000F0CB8800DE
:105830002188A80000000600881F780018002000BA
:10584000489A8800C237210088407800503B2100E8
:105850007AFD0700080078004F0478000000060079
:105860000000EB0000000600B0342100104078007A
:10587000A1CAB300814F500004003200F1C04000C3
:10588000814F500011003A0008003700313B2100E1
:10589000C0342100114878008100E900F034210073
:1058A00010407800CFFA070009003700413B210083
:1058B000C0342100114878008180E900F0342100D3
:1058C00010407800C7FA0700010037000000EB0025
:1058D00000000600A71E0700E10F500001003A007B
:1058E000A71E0700A81E07000000A20000F0A700E6
:1058F0000000EA000000E9004F00DE0000000600A2
:10590000889FBE008A9FBE00800378006114B900A2
:10591000048251000402E90003003300080444003B
:1059200089844C00FBFF37001281C30059018800B5
:1059300048018800010278001281C20050018000F5
:1059400080057800400180000005780083814200D6
:105950000A00BE008301E900030033008180D1000A
:105960000080D300FBFF37000005BE000600E0000A
:1059700004003A00E00F5000E08F580001003D00A5
:105980006055B8000A0078004F05BE004F04BE0005
:105990000000060000AA880023542100134178006B
:1059A0000282FB00040242004154210004824000B4
:1059B00094007800F1A98800000A78000241E8000C
:1059C00082497800FF4F5100020036000301780041
:1059D0000049EB0022AC800033AC800002014000A3
:1059E000E081490001005100E080590020AC8800AE
:1059F00031AC88004B09DD004500DE00000071007D
:105A0000C508DE0000000600889FBE00489B80009D
:105A1000399B8000151407000003EB008082EB0027
:105A2000640020002301200008017800890078002C
:105A3000B3FF0700F1322000810F500001003E004B
:105A4000E0A98800E0A98000D2FF0700E0A9880053
:105A50004F04BE00000006000003EB008002EB00D4
:105A600054002000D3002000729B8000519B8000D6
:105A700030C88000A2FF070000000600B29B800033
:105A8000F7C780008000EB00870F51002500310030
:105A9000C1352100914078000104E00013003A0074
:105AA00031C88000909B8000808F50000400390036
:105AB000A09B8000810F500001003600010078009B
:105AC0000003EB006022B800D3002000829B80001E
:105AD000619B80008AFF0700C0A9880011C0B30045
:105AE000C0352100014878000D003700E1CF50009B
:105AF0000B003A00828353000003EB006022B800E1
:105B0000D300200000017800C1A9800007007800C0
:105B10007BFF0700D0A98800C03521000048EB00BA
:105B2000D1A98000010078000000060080A788004D
:105B3000234F2100134178000282FB00040242003F
:105B4000414F2100048240009400780071A7880032
:105B5000000A78000241E80082497800FF4F5100B6
:105B600002003600030178000049EB00A2A9800082
:105B7000B3A9800002014000E0814900010051000A
:105B8000E0805900A0A98800B1A988004B09DD0078
:105B90004500DE0000007100C508DE0000000600C0
:105BA000889FBE00289B8000199B8000B5130700CA
:105BB0000003EB0065FF2F0024012000930120006B
:105BC00008017800890078004DFF0700D7FF070023
:105BD00060A788004F04BE000000060020A38800D4
:105BE00063462100134178000282FB000402420058
:105BF00081462100048240009400780011A38800AF
:105C0000000A78000241E80082497800F3C3B3003B
:105C1000834F510002003600624621000049EB002C
:105C200042A7800053A7800002014000E0814900A4
:105C300001005100E080590040A7880051A788006A
:105C40004A09DD004600DE0000007100C608DE00E3
:105C50000000060005C88000F4C780001381C00062
:105C60000084CD004300DE000003EB00C5FF2F00E1
:105C700064002000E3002000029B8000F19A800075
:105C80001FFF0700D5FF070000A3880000000600E3
:105C9000881F780000047800620C0700B00B200019
:105CA000800F54000800320071004000800F540043
:105CB00007003200A00A2000800F540006003A00BE
:105CC000550C0700050037004D0C07000300370096
:105CD0004E0C070001003700520C07004F047800FB
:105CE00000000600844521000000EB00233B21005A
:105CF00007F02F00F60F200000014000E3024100F2
:105D0000858241009582FB0087806000818072005F
:105D100064014100028141001281FB004811DD0055
:105D20008680600081007100012A78000000E80090
:105D3000E30F5000F0FF3A00B13B21008045210005
:105D4000114878008100E8000000E8001148780060
:105D5000C0A28000CEFF0700100020000000060057
:105D6000C03421001080FB008000EB006300500075
:105D7000E0805800C2032000820F5000E08F5800DE
:105D800076003E00000601003F003700410037006A
:105D90007200370071003700700037006F00370065
:105DA0003F0037006D003700400037006B003700C0
:105DB0006A00370069003700680037006700370065
:105DC0002E0037006500370064003700630037009D
:105DD0006200370061003700600037005F00370065
:105DE0005E0037005D0037005C0037005B00370065
:105DF0005A00370059003700580037002E0037008E
:105E000030003700320037005400370053003700AD
:105E10005200370051003700500037004F00370064
:105E2000460037004D0037004C0037004B0037006C
:105E30004A00370049003700480037004700370064
:105E400026003700450037002700370043003700A1
:105E50002800370041003700290037003F00370095
:105E60002A0037003D0037002B0037003B00370089
:105E70002C003700390037002D003700D9FB070010
:105E8000800078002F003700DEFB070080007800DC
:105E90002C003700E4FB0700800078002900370061
:105EA000F1FB07008000780026003700F1FB0700B7
:105EB0008000780023003700F7FC0700800078009E
:105EC000200037001BFD0700800078001D00370010
:105ED00044FD0700800078001A00370056FE0700D6
:105EE0008000780017003700C9FC070080007800A8
:105EF00014003700CCFC0700800078001100370048
:105F0000CFFC0700800078000E003700D2FC0700AD
:105F1000800078000B003700D1FC0700800078007B
:105F200008003700D4FC0700800078000500370027
:105F3000D3FC0700800078000200370069FF0700EB
:105F400080007800D0CFB300E18F500004003A0009
:105F5000C0342100104078000100370000C0EB0081
:105F60000000060040FE070080007800C0CFB300AC
:105F7000E18F500001003A0079FF070000000600A1
:105F8000889FBE008A9FBE008C9FBE00E83421001F
:105F90002A3B2100FB3421006D352100BC34210057
:105FA000410037009884FB00FE1C0700890445006F
:105FB000804C7800184078000004E00016003A0099
:105FC00010002000B09988001A407800A1CAB300E0
:105FD000814F500004003200F1C04000814F50005A
:105FE0002F003A0007003700A0CAB300004E780027
:105FF00020C0B300804D780010C0B300004C780082
:1060000027003700B0CBB300004E780010C0B300BB
:10601000004C780022003700E14F500012003A0097
:10602000B0CBB3009C4F10000D003A00303B210074
:106030001040E800804D78008158210080487800A9
:1060400061C3B300814F5000050036000140780065
:10605000804D780080CEEB0010002000C0998800B1
:10606000184CE8000E0037009B4F500008003A0023
:106070000000EB00B0998800BAFF0700804E78005E
:1060800010002000C099880073F907000400370051
:1060900051C3B300814F500001003E00004CE800A6
:1060A0000000EB00909A8800C01C0700E10F500030
:1060B000BCFF32004F06BE004F05BE004F04BE00BD
:1060C000000006003600F800809FBE00829FBE00E0
:1060D000849FBE00869FBE002200F8002400F800C6
:1060E0002600F8002800F8002A00F8002C00F8002C
:1060F0000168A900A2FF07002C00F9002A00F9009E
:106100002800F9002600F9002400F9002200F90017
:106110004F03BE004F02BE004F01BE004F00BE0045
:106120003600F900004006004006210010407800CB
:1061300000000600B00121001040780000000600B9
:10614000100020006082880000000600200321006B
:10615000000006006003210000000600A0032100EB
:1061600010407800000006004106210080487800B9
:106170000000060060808000000006000000EB00C8
:10618000708088000000060060398800513988005E
:1061900042398800FF3FFC000000000000000000C2
:1061A0002023A9002DC8A9002DE8A90020E8A900F6
:1061B00040A7A900C1E8A9000000000000000000FD
:1061C000120280004511DE006741610091028000EB
:1061D000FF3FFC0010028000000EB3001002880098
:1061E0009102880000008800500520007039880066
:1061F000A00A20007039880029E7A80000000000EC
:106200000000000000000000000000000100280065
:106210004339800003806000FDFF3A00C1E8A80018
:10622000000000000000000040A7A8002023A800F4
:106230002DC8A8002DE8A80020E8A8009002800042
:10624000FF3FFC00E7006100C508DD00F2F12F0010
:1062500013028000030161000281700012028800B5
:10626000900288000000880000000600F082800094
:1062700000000600008280000000060010828000FE
:1062800000000600208280000000060020828800B6
:1062900000000600008288000000060010828800CE
:1062A000000006000080FB00A107210000804000E4
:1062B00010407800000006002086800031868000B3
:1062C0000000060020868800318688000000060055
:1062D000938280000300E00005003A0004802E0055
:1062E000F5FF2F000000420081804A0004003700C3
:1062F00004C02F00F5FF2F000000420081804A00FB
:10630000E70160000A00320083FF2F0080816100F6
:10631000610AB800C020DD0000002000611AB8004A
:10632000040070008580700068004000E080480034
:10633000CD09DD004300DE0000807100C308DE00EF
:10634000E60AB9006600B800810042000204E000DD
:106350000B003200EA4F510005003A000200210014
:106360000300200000004100818049000400370044
:10637000020021001300200000004100818049003C
:106380000000060010C0B300CBFA0700010C21008A
:10639000804878000040EB00C7FA0700110C21008C
:1063A0008048780041062100200C21001148780027
:1063B000008680001186800004802E00F5FF2F00EB
:1063C0000002420081824A00027023001300200074
:1063D000820F5200838F5A0005003600E1C5B300DA
:1063E000B0012100014878000000EB0005003700F3
:1063F000B203210012417800B5FF0700B1FF07008A
:10640000100020000000060021C2B300E0022100BD
:1064100001487800130020006381880010002100EB
:1064200031002000E0808800F18088000081880031
:1064300011818800040021000500200044818800AB
:10644000558188000001EB00828188006022B8003D
:10645000248188003581880062808800A2808800BD
:10646000A203210003497800B0818800C18188001F
:10647000CA0D07000000060010002000A08288005E
:10648000000006000A00FA000040EB0090FF9F00A9
:10649000408280000000E00078003200008280002E
:1064A0000000E00075003A00D2858000E38580009E
:1064B00090838000A1838000800F5100818F59005C
:1064C0002E00310031C0B3006A805700260D07004E
:1064D000F28580006FF097008081FB00F10F2000B3
:1064E00001006100008069008001400020FF290058
:1064F000830140004811DE001301690001026100C0
:10650000FFF197008381FB0083016A0083814100D2
:10651000830140004811DE0013016900010261009F
:106520008FF997008381FB0083016A00838141001A
:10653000830140004811DE00130169008100610001
:106540009FF997008381FB00838068008180400071
:10655000010040004811DE0010016900F28588004A
:10656000D0858000E185800063004000E080480025
:10657000D0858800E185880040003700F0818000E8
:10658000F1858000808F500005003A00B0012100A5
:106590000048EB00100020006082880005003700F2
:1065A000C1C5B300B0012100014878000000EB0034
:1065B00060828800B0032100104078000004E000F1
:1065C00003003200EA4F50001B003A000D00370074
:1065D00060828000E10F500007003A00F2FF2000C7
:1065E00003002000A0CAB300170D0700E00421003B
:1065F0001004A0001C003700E00421001004A100DA
:106600001900370060828000E10F500007003A0057
:10661000F2FF200013002000A0CAB3000A0D0700FB
:10662000E00421001014A0000F003700E004210056
:106630001014A1000C00370060828000E10F5000B0
:1066400007003A00F2FF200023002000A0CAB30098
:10665000FD0C0700E00421001024A0000200370018
:10666000E00421001024A1000000EB00408288001B
:10667000F1858000E1DD8800F08588000080FA0067
:10668000000006003A0D070080007800100020008E
:106690000100E00002003A005BFF07000000EB0091
:1066A000000006000200FA00889FBE0080447800C7
:1066B0000104780066805700800D07005FB89700DE
:1066C000E10060001000200019003A005033210062
:1066D00010407800894F50000500390020E8A900DB
:1066E000503321000048EB000000EB0010003700A1
:1066F0000080FB00A1072100008040001801BE00BF
:1067000010407800D00C0700503321001048E800FA
:106710001000200001002000180C40005894480090
:1067200000E8A9000621EF0020E8A80010002000E2
:106730004F04BE000080FA0000000600889FBE00E3
:106740008A1F780010C0B300DBF907006044B8006E
:106750000085FB000040EB00D7F907004800DD0092
:106760000A047000400621009080FB0000F02F001A
:1067700009006000008070008084FB000899880098
:10678000199988003083800041838000800F540075
:10679000818F5C00A6003A00600421001040780060
:1067A000E14F500049003E000040E8006104210034
:1067B00080487800E14F500039003A0020C0B30013
:1067C000BDF90700E10621008048780030C0B30021
:1067D000B9F90700F1062100804878000040EB007D
:1067E0008100E800804878008100E8008048780057
:1067F0007083800081838000000040008180480019
:106800007083880081838800928280000200E0000B
:1068100011003A0002F0240013002000820F500003
:10682000838F5800030036007283880083838800BA
:1068300026003700F2832100820F5000E08F5800BD
:1068400022003E00008421000100200070838800A7
:10685000818388001D003700E27F2100820F5000F5
:10686000E08F580005003600E07F21000100200085
:10687000708388008183880014003700F243200071
:10688000820F5000E08F580010003E0000442000AE
:106890000100200070838800818388000B0037008E
:1068A000E24F500009003A0030C0B30082F90700FF
:1068B0000045780020C0B3007FF907004855DD008F
:1068C0000080FB0000004500F0818800708380009C
:1068D00081838000800F5400818F5C002E00310086
:1068E000008280000000E00027003A003083800032
:1068F0004183800068004000E080480030838800C9
:106900004183880020C0B3006BF90700A107210074
:106910008048780030C0B30067F90700B107210054
:106920008048780040C0B30063F90700C107210028
:106930008048780060C0B3005FF90700D1072100EC
:106940008048780070C0B3005BF90700E1072100C0
:106950008048780080C0B30057F90700F107210094
:10696000804878001000200000828800B0012100DB
:106970000048EB00F5FD07008000780060C0B30020
:1069800048FF07000700370061C5B300B0012100D0
:10699000014878000300370071C5B300B001210041
:1069A00001487800708380008183800032838000FA
:1069B00043838000800F5100818F59001F003600F3
:1069C000120020004282880052828800B203210017
:1069D00012447800084178003DFE0700908388004B
:1069E000A1838800908280000000E00007003A0048
:1069F00008417800008421000100200034FE0700D7
:106A0000D0858800E18588000600370008417800BD
:106A100000442000010020002DFE0700D0858800E2
:106A2000E1858800B00121000048EB000300370039
:106A300081C5B300B0012100014878004F057800FE
:106A40004F04BE0000000600889FBE008A1F780029
:106A5000004578000204BE00108280000000E000C3
:106A600031003A000200BE00680B0700E14F400011
:106A700015003A0011C0B300A003210001487800BE
:106A8000B8818800C9818800F0FF2E00C1FF2F0067
:106A90000804400089844800A00721000804400041
:106AA0000A4C780010002000A0808800A9FD070093
:106AB00000047800A9FD070088007800F9FE0700AF
:106AC000F6FD070018003700F1C5B300B001210042
:106AD0000148780011C0B300A003210001487800EC
:106AE0001000210031002000480B0700A107210001
:106AF00080487800F2FF2E00C3FF2F0008044100F9
:106B000089844900888040008A487800180C070072
:106B10000000E00002003A003BFE070002003700E0
:106B200010002000208288004F0578004F04BE002E
:106B3000000006000E0C07000000E00062003A00B2
:106B4000B0032100104078000004E0000300320090
:106B5000EA4F50003E003A001E00370041C4B30027
:106B6000E0022100014878001000200060818800C8
:106B70006000B800E0808800F18088000081880013
:106B80001181880090818800A1818800208688007A
:106B90003186880002002100030020004281880025
:106BA000538188000001EB008281880020818800E9
:106BB00031818800E00421001004A1006000B800C9
:106BC000F60B070051C5B300B00121000148780061
:106BD0003D00370011C1B300E002210001487800F8
:106BE00000012000608188000000210001002000D9
:106BF000E0808800F1808800008188001181880091
:106C000090818800A18188002086880031868800D4
:106C10000200200013002000428188005381880078
:106C20000001EB00828188006011B8002281880099
:106C300033818800E20421001214A100D70B070061
:106C400051C5B300B0012100014878001E00370093
:106C500011C1B300E00221000148780000012000CA
:106C6000608188000000210011002000E080880081
:106C7000F18088000081880011818800908188005F
:106C8000A1818800208688003186880002002000CB
:106C90001300200042818800538188000001EB002E
:106CA000828188006011B8002281880033818800C9
:106CB000E20421001224A100B80B070051C5B30063
:106CC000B0012100014878000000060081828000A8
:106CD0000100E00004003A001100200081828800D9
:106CE000B103210080487800000006008082800007
:106CF00000000600100020009082880000000600BE
:106D00000000EB00908288000000060010002000C8
:106D1000E0828800000006000000EB00D0828800BE
:106D2000000006000000EB00E08288000000060082
:106D30001083800000000600E0042100104078006D
:106D400000000600609980000000E00003003A00A7
:106D5000719980008100E80071998800813E2000CF
:106D600072998000810F5100270036000000E0007A
:106D700025003A0010002000609988000000EB0018
:106D800070998800F0FF2000010020009F0A070092
:106D9000A1CAB300814F500003003A00E004210073
:106DA0001004A00002003700E00421001004A1003C
:106DB000F0FF200011002000940A0700A1CAB300D0
:106DC000814F500003003A00E00421001014A0009D
:106DD00002003700E00421001014A100F0FF2000A1
:106DE00021002000890A0700A1CAB300814F50008A
:106DF00003003A00E00421001024A0000200370044
:106E0000E00421001024A10000000600E24F500021
:106E10003000320005003E000004E0000F003200A8
:106E2000E14F500041003A0017003700E44F500096
:106E3000040032003A003900E54F50003B003A00B0
:106E400003003700A0C0B300A0FF070037003700E1
:106E5000B0C0B3009DFF070034003700F0FF2000F2
:106E600001002000690A0700A1CAB300814F500049
:106E70002E003A009FFF0700B1FC07001000200021
:106E8000F082880029003700F0FF20001100200068
:106E90005E0A0700A1CAB300814F500009003A0002
:106EA00097FF0700A6FC0700120021003300200016
:106EB000A0C0B300E4FE070010002000F0828800AC
:106EC0001A003700C1C5B300B001210001487800A5
:106ED00016003700F0FF2000210020004B0A0700B9
:106EE000A1CAB300814F500009003A0084FF070097
:106EF00093FC07001200210033002000B0C0B30053
:106F0000D1FE070010002000F08288000700370043
:106F1000C1C5B300B001210001487800030037006B
:106F200077FF07007CFF07007EFF070000000600D8
:106F3000F082800000000600D08280000000060081
:106F4000E082800000000600A080800000000600B3
:106F5000B10121008048780000000600889FBE0033
:106F6000020220000081800011818000470A070092
:106F70000000E00018003A0060808800E002210074
:106F800090407800F1CF50000300320040C4B300BD
:106F900080CF500005003A00C1C0B300B00121000D
:106FA00001487800100020003F003700100020004A
:106FB00022C2B30082CF50003B003A00C1C0B300F0
:106FC000B0012100014878000000EB002082880019
:106FD0001000200034003700008180001181800003
:106FE0000002B0000180B00000818800118188009B
:106FF00022818000338180000202B0000380B00053
:1070000022818800338188000000EB0044818000E9
:1070100055818000840F5100858F5900220039006E
:107020001000200060808800E0022100904078007D
:10703000F1CF50000300320040C4B30080CF5000B5
:107040000B003A0029FF07000000E00005003A00AD
:10705000D1C0B300B0012100014878001000200029
:107060001100370010002000908088000E003700CB
:107070001000200022C2B30082CF50000A003A0064
:1070800018002000A88088001882880031FC0700C2
:107090008004780031FC07008900780081FD07003A
:1070A0007EFC0700080078004F04BE0000000600C8
:1070B0000200FA000F80E900000B07007FB897007C
:1070C000E10060000000EB0011003A0081818000C7
:1070D0008100E8008181880010002000628180002A
:1070E000828F50000A0031000000210001002000C2
:1070F000E2808000F380800002004000838048002E
:10710000E0808800F1808800A40A07000000EB00FE
:107110000080FA00000006006039880051398800BC
:10712000A00F2000A00288000000EB000308BB00B5
:107130000288BB00200020000508BB000488BB00BB
:1071400000000600603988005139880082398800C3
:1071500000000600A10288001208BA001281BA00DD
:1071600012009800000006000400FA00889FBE008C
:107170008A9FBE000006210010407800E24F5000B8
:107180001800320005003E000004E0000900320053
:10719000E14F500077003A000D003700E44F5000F7
:1071A0005200320028003900E54F500071003A00CB
:1071B0006900370080828000E10F50006D003A00C6
:1071C00011C0B300000621000148780069003700B3
:1071D00058FE070021C0B3000006210001487800D6
:1071E0006400370090808000E10F500061003A0099
:1071F0000000EB009080880000C02000010020000B
:10720000409988005199880002C120008000EB005D
:107210006C805700CFFF07002FB897002099880097
:1072200042C120008000EB006C805700C9FF0700BE
:107230002FB89700F081880031C0B300000621000C
:10724000014878004B0037000AFC07000000E0000E
:1072500048003A00A8072100F90320008884440070
:107260008A3221008005EB001A0178008B0078003B
:107270006C805700B7FF07002FB89700BFB8970082
:10728000004C78004801DE00124498002144980028
:10729000409980005199800062004000E0804800E1
:1072A000409988005199880063044400890F540074
:1072B000EDFF3A001000200000828800A3FB0700C9
:1072C00080007800F0C3B300F6FC0700419980000D
:1072D00040322100908F50002600390041C0B30099
